{
  "contractName": "Casino",
  "abi": [
    {
      "inputs": [],
      "stateMutability": "nonpayable",
      "type": "constructor"
    },
    {
      "anonymous": false,
      "inputs": [
        {
          "indexed": true,
          "internalType": "address",
          "name": "previousOwner",
          "type": "address"
        },
        {
          "indexed": true,
          "internalType": "address",
          "name": "newOwner",
          "type": "address"
        }
      ],
      "name": "OwnershipTransferred",
      "type": "event"
    },
    {
      "anonymous": false,
      "inputs": [
        {
          "indexed": true,
          "internalType": "address",
          "name": "_from",
          "type": "address"
        },
        {
          "indexed": true,
          "internalType": "address",
          "name": "_to",
          "type": "address"
        },
        {
          "indexed": false,
          "internalType": "uint256",
          "name": "_value",
          "type": "uint256"
        }
      ],
      "name": "Transfer",
      "type": "event"
    },
    {
      "inputs": [],
      "name": "owner",
      "outputs": [
        {
          "internalType": "address",
          "name": "",
          "type": "address"
        }
      ],
      "stateMutability": "view",
      "type": "function"
    },
    {
      "inputs": [],
      "name": "renounceOwnership",
      "outputs": [],
      "stateMutability": "nonpayable",
      "type": "function"
    },
    {
      "inputs": [],
      "name": "token",
      "outputs": [
        {
          "internalType": "contract IERC20",
          "name": "",
          "type": "address"
        }
      ],
      "stateMutability": "view",
      "type": "function"
    },
    {
      "inputs": [
        {
          "internalType": "address",
          "name": "newOwner",
          "type": "address"
        }
      ],
      "name": "transferOwnership",
      "outputs": [],
      "stateMutability": "nonpayable",
      "type": "function"
    },
    {
      "inputs": [],
      "name": "initializeRoom",
      "outputs": [
        {
          "internalType": "uint256",
          "name": "sufficient",
          "type": "uint256"
        }
      ],
      "stateMutability": "nonpayable",
      "type": "function"
    },
    {
      "inputs": [
        {
          "internalType": "uint256",
          "name": "roomId",
          "type": "uint256"
        }
      ],
      "name": "joinRoom",
      "outputs": [
        {
          "internalType": "bool",
          "name": "sufficient",
          "type": "bool"
        }
      ],
      "stateMutability": "nonpayable",
      "type": "function"
    },
    {
      "inputs": [
        {
          "internalType": "uint256",
          "name": "roomId",
          "type": "uint256"
        },
        {
          "internalType": "address",
          "name": "receiver",
          "type": "address"
        },
        {
          "internalType": "uint256",
          "name": "amount",
          "type": "uint256"
        }
      ],
      "name": "faucet",
      "outputs": [
        {
          "internalType": "bool",
          "name": "sufficient",
          "type": "bool"
        }
      ],
      "stateMutability": "nonpayable",
      "type": "function"
    },
    {
      "inputs": [],
      "name": "getOwner",
      "outputs": [
        {
          "components": [
            {
              "internalType": "address",
              "name": "owner",
              "type": "address"
            }
          ],
          "internalType": "struct Casino.Room",
          "name": "rooms",
          "type": "tuple"
        }
      ],
      "stateMutability": "pure",
      "type": "function"
    }
  ],
  "bytecode": "0x6080604052600060025534801561001557600080fd5b5061003261002761003760201b60201c565b61003f60201b60201c565b610103565b600033905090565b60008060009054906101000a900473ffffffffffffffffffffffffffffffffffffffff169050816000806101000a81548173ffffffffffffffffffffffffffffffffffffffff021916908373ffffffffffffffffffffffffffffffffffffffff1602179055508173ffffffffffffffffffffffffffffffffffffffff168173ffffffffffffffffffffffffffffffffffffffff167f8be0079c531659141344cd1fd0a4f28419497f9722a3daafe3b4186f6b6457e060405160405180910390a35050565b6109e7806101126000396000f3fe608060405234801561001057600080fd5b50600436106100885760003560e01c80638da5cb5b1161005b5780638da5cb5b146101035780639cfc4b4514610121578063f2fde38b14610151578063fc0c546a1461016d57610088565b806364a5c7551461008d578063715018a6146100bd57806387d04d62146100c7578063893d20e8146100e5575b600080fd5b6100a760048036038101906100a291906105c8565b61018b565b6040516100b49190610636565b60405180910390f35b6100c5610241565b005b6100cf610255565b6040516100dc9190610660565b60405180910390f35b6100ed6102d4565b6040516100fa91906106a6565b60405180910390f35b61010b6102df565b60405161011891906106d0565b60405180910390f35b61013b600480360381019061013691906106eb565b610308565b6040516101489190610636565b60405180910390f35b61016b60048036038101906101669190610718565b610313565b005b610175610396565b60405161018291906107a4565b60405180910390f35b6000806003600086815260200190815260200160002090503373ffffffffffffffffffffffffffffffffffffffff168160000160009054906101000a900473ffffffffffffffffffffffffffffffffffffffff1673ffffffffffffffffffffffffffffffffffffffff1614610235576040517f08c379a000000000000000000000000000000000000000000000000000000000815260040161022c9061081c565b60405180910390fd5b60019150509392505050565b6102496103bc565b610253600061043a565b565b60006002600081548092919061026a9061086b565b919050555060006003600060025481526020019081526020016000209050338160000160006101000a81548173ffffffffffffffffffffffffffffffffffffffff021916908373ffffffffffffffffffffffffffffffffffffffff16021790555060025491505090565b6102dc610506565b90565b60008060009054906101000a900473ffffffffffffffffffffffffffffffffffffffff16905090565b600060019050919050565b61031b6103bc565b600073ffffffffffffffffffffffffffffffffffffffff168173ffffffffffffffffffffffffffffffffffffffff160361038a576040517f08c379a000000000000000000000000000000000000000000000000000000000815260040161038190610925565b60405180910390fd5b6103938161043a565b50565b600160009054906101000a900473ffffffffffffffffffffffffffffffffffffffff1681565b6103c46104fe565b73ffffffffffffffffffffffffffffffffffffffff166103e26102df565b73ffffffffffffffffffffffffffffffffffffffff1614610438576040517f08c379a000000000000000000000000000000000000000000000000000000000815260040161042f90610991565b60405180910390fd5b565b60008060009054906101000a900473ffffffffffffffffffffffffffffffffffffffff169050816000806101000a81548173ffffffffffffffffffffffffffffffffffffffff021916908373ffffffffffffffffffffffffffffffffffffffff1602179055508173ffffffffffffffffffffffffffffffffffffffff168173ffffffffffffffffffffffffffffffffffffffff167f8be0079c531659141344cd1fd0a4f28419497f9722a3daafe3b4186f6b6457e060405160405180910390a35050565b600033905090565b6040518060200160405280600073ffffffffffffffffffffffffffffffffffffffff1681525090565b600080fd5b6000819050919050565b61054781610534565b811461055257600080fd5b50565b6000813590506105648161053e565b92915050565b600073ffffffffffffffffffffffffffffffffffffffff82169050919050565b60006105958261056a565b9050919050565b6105a58161058a565b81146105b057600080fd5b50565b6000813590506105c28161059c565b92915050565b6000806000606084860312156105e1576105e061052f565b5b60006105ef86828701610555565b9350506020610600868287016105b3565b925050604061061186828701610555565b9150509250925092565b60008115159050919050565b6106308161061b565b82525050565b600060208201905061064b6000830184610627565b92915050565b61065a81610534565b82525050565b60006020820190506106756000830184610651565b92915050565b6106848161058a565b82525050565b6020820160008201516106a0600085018261067b565b50505050565b60006020820190506106bb600083018461068a565b92915050565b6106ca8161058a565b82525050565b60006020820190506106e560008301846106c1565b92915050565b6000602082840312156107015761070061052f565b5b600061070f84828501610555565b91505092915050565b60006020828403121561072e5761072d61052f565b5b600061073c848285016105b3565b91505092915050565b6000819050919050565b600061076a6107656107608461056a565b610745565b61056a565b9050919050565b600061077c8261074f565b9050919050565b600061078e82610771565b9050919050565b61079e81610783565b82525050565b60006020820190506107b96000830184610795565b92915050565b600082825260208201905092915050565b7f4e6f742068617665207065726d697373696f6e21212100000000000000000000600082015250565b60006108066016836107bf565b9150610811826107d0565b602082019050919050565b60006020820190508181036000830152610835816107f9565b9050919050565b7f4e487b7100000000000000000000000000000000000000000000000000000000600052601160045260246000fd5b600061087682610534565b91507fffffffffffffffffffffffffffffffffffffffffffffffffffffffffffffffff82036108a8576108a761083c565b5b600182019050919050565b7f4f776e61626c653a206e6577206f776e657220697320746865207a65726f206160008201527f6464726573730000000000000000000000000000000000000000000000000000602082015250565b600061090f6026836107bf565b915061091a826108b3565b604082019050919050565b6000602082019050818103600083015261093e81610902565b9050919050565b7f4f776e61626c653a2063616c6c6572206973206e6f7420746865206f776e6572600082015250565b600061097b6020836107bf565b915061098682610945565b602082019050919050565b600060208201905081810360008301526109aa8161096e565b905091905056fea2646970667358221220cdaf113fe1960a8475bd6505a0e6d983e279b9c229bccd38166d98bdcba0919064736f6c634300080d0033",
  "immutableReferences": {},
  "source": "// SPDX-License-Identifier: MIT\n// Tells the Solidity compiler to compile only from v0.8.13 to v0.9.0\npragma solidity ^0.8.13;\nimport \"@openzeppelin/contracts/access/Ownable.sol\";\nimport \"@openzeppelin/contracts/token/ERC20/IERC20.sol\";\n\n// This is just a simple example of a coin-like contract.\n// It is not ERC20 compatible and cannot be expected to talk to other\n// coin/token contracts.\n\ncontract Casino is Ownable {\n    IERC20 public token;\n    uint constant ZERO = 0;\n\n    uint roomsSize = 0;\n    mapping(uint => Room) rooms;\n    struct Room {\n        address owner;\n        // mapping(address => Player) players;\n\n    }\n\n    struct Player {\n        uint totalBalnce;\n        uint balance;\n        uint betAmount;\n    }\n\n    event Transfer(address indexed _from, address indexed _to, uint256 _value);\n\n    constructor() {}\n\n    function initializeRoom() public returns (uint sufficient) {\n        roomsSize++;\n        Room storage room = rooms[roomsSize];\n        room.owner = msg.sender;\n        return roomsSize;\n    }\n\n    function joinRoom(uint roomId) public returns (bool sufficient) {\n        // Room storage room = rooms[roomId];\n        // room.players[msg.sender] = Player(ZERO, ZERO, ZERO);\n        return true;\n    }\n\n    function faucet(\n        uint roomId,\n        address receiver,\n        uint amount\n    ) public returns (bool sufficient) {\n        Room storage room = rooms[roomId];\n        require(room.owner == msg.sender, \"Not have permission!!!\");\n\n        // Player storage player = room.players[receiver];\n        // player.totalBalnce += amount;\n        // player.balance += amount;\n\n        return true;\n    }\n\n    function getOwner() public pure  returns(Room memory rooms) {\n        return rooms;\n    }\n\n\n}\n",
  "sourcePath": "/Users/congdm/Desktop/EVM/casino-contract/contracts/Casino.sol",
  "compiler": {
    "name": "solc",
    "version": "0.8.13+commit.abaa5c0e.Emscripten.clang"
  },
  "schemaVersion": "3.4.12",
  "updatedAt": "2023-03-10T04:15:16.692Z",
  "devdoc": {
    "kind": "dev",
    "methods": {
      "owner()": {
        "details": "Returns the address of the current owner."
      },
      "renounceOwnership()": {
        "details": "Leaves the contract without owner. It will not be possible to call `onlyOwner` functions anymore. Can only be called by the current owner. NOTE: Renouncing ownership will leave the contract without an owner, thereby removing any functionality that is only available to the owner."
      },
      "transferOwnership(address)": {
        "details": "Transfers ownership of the contract to a new account (`newOwner`). Can only be called by the current owner."
      }
    },
    "version": 1
  },
  "userdoc": {
    "kind": "user",
    "methods": {},
    "version": 1
  }
}